00C12936    20191021RRDP30NO00000                                                                                                                                                                                                                                                                           
DPT0000001299UDIP29920191026U00001Z000644637060E0000000000000201910290560812345RS                                                                                                                                                                                                                           
DPD000000202345668911512365478965412365478MARIO ROSSI                                                                             00198ROMA                                      RMVIA PO                                                                                                                   
DPD000000322345676911612365478965412365478MARIO ROSSI                                                                             00198ROMA                                      RMVIA PO                                                                                                                   
DPD000000422345678961712365478965412365478MARIO ROSSI                                                                             00198ROMA                                      RMVIA PO                                                                                                                   
DPC000000529900000005                                                                                                                                                                                                                                                                                       
99C12936    00000005                                                                                                                                                                                                                                                                                        