00C12936    20200102RRDP30NO00002                                                                                                                                                                                                                                                                           
DPT0000001048MDIP04820180101M00001Z000741924034SAAAPPPPPPPPPP201801010206812345AR                                                                                                                                                                                                                           
DPD000000202345668911112365478965412365478MARIO ROSSI                                                                             00198ROMA                                      RMVIA PO                                                                                                                   
DPC000000304800000003                                                                                                                                                                                                                                                                                       
99C12936    00000003                                                                                                                                                                                                                                                                                        