00C12936    20191010PMDP10NO00000                                                                                                                                                                                                                                                                                                                             
DPT0000001DPM992003L000002019112200001003L992L2345678912019102257847PA4 ALV1234567891011123                                                                                                                                                                                                                                                                   
DPD0000002234LOEL567MALUFA1234MARIO ROSSI                                                                                         60122ANCONA                                            ANVIA PO                                                                                              03005                                                          
DPC0000003DPM992003L00000201911220000100000003                                                                                                                                                                                                                                                                                                                
99C12936    00000003                                                                                                                                                                                                                                                                                                                                          